:0D0DA2007FFA7E00120DAFD2A17FFA7E0015
:100DAF007C007D0F12087AE4FDFCC3ED9FEC9E5092
:080DBF00070DBD00010C80F2DC
:010DC7002209
:050E7D00D2A0D2A12269
:100DFE00D2A1D2A07FF47E01120DAFC2A07FF47EED
:040E0E0001020DAF21
:100E1200C2A1120DABD2A0120DA2C2A07FFA7E0017
:030E2200020DAF0F
:100E2500C2A1120DABC2A0120DA2D2A07FFA7E0004
:030E3500020DAFFC
:100E3800C2A1120DABC2A0120DABD2A17FF47E01EC
:030E4800020DAFE9
:100E4B00C2A1120DABD2A0120DABD2A17FF47E01C9
:030E5B00020DAFD6
:020CC500AB077B
:100CC700E4FAC2A1120DABEBA802088002C333D825
:100CD700FC30E704D2A08002C2A0120DABD2A17FE4
:100CE700F47E01120DAF0ABA08D8C2A1D2A07FF4D0
:100CF7007E01120DAFD2A17FF47E01120DAFA2A02B
:010D070022C9
:100D7400E4FBFAC2A1D2A07FF47E01120DA6A2A0C8
:100D8400E433F9C374079AFFE9A807088002C33360
:0D0D9400D8FC4203120DAB0ABA08D8AF0319
:010DA100222F
:100E5E00E4FDFCC3ED9FEC9E50070DBD00010C8020
:010E6E00F291
:010E6F002260
:100DC8008F328D3380077FD0120CC55005120DFE6F
:0F0DD80080F4AF32120CC5AF33120CC5020E25DA
:020D08008F3426
:100D0A00E4F53580077FD0120CC55005120DFE8020
:100D1A00F4AF34120CC5120E127FD1120CC5120D8B
:100D2A00748F35120E4BC2A07FF47E01120DAFD222
:0A0D3A00A07FF47E01120DAFAF356B
:010D4400228C
:080C7A008F228B238A248925B7
:100C820080077FD0120CC55005120DFE80F4AF22F2
:100C9200120CC5E4F527F528C3E5289526E5279427
:100CA20000501DAB23AA24A92585288285278312FB
:100CB2000819FF120CC50528E52870DC052780D825
:030CC200020E25FA
:080AA4008F1E8B1F8A2089219F
:100AAC0080077FD0120CC55005120DFE80F4AF1ECE
:100ABC00120CC5120E127FD1120CC5120D74AB1F85
:100ACC00AA20A921EF120846752400752501C3E55B
:100ADC00259523E52495225020120E38120D74AB67
:100AEC001FAA20A921852582852483EF1208580589
:100AFC0025E52570D9052480D5120E4BC2A07FF4B4
:0E0B0C007E01120DAFD2A07FF47E01020DAF6C
:100B7600E52175F00A84C454F0FEE52175F00A8477
:100B8600E5F04EF52AEB75F00A84C454F0FEEB75D9
:100B9600F00A84E5F04EF52BED75F00A84C454F0A6
:100BA600FEED75F00A84E5F04EF52CEF14600804AE
:100BB6007008432C408003432C607B007A00792A1E
:080BC600752603E4FF020C7A1E
:100A23007B007A00792A752200752303E4FF120AFA
:100A3300A4852A29E529547FC4540F75F00AA4FF1D
:100A4300E529540F2FF52A852B29E529C4540F7561
:100A5300F00AA4FFE529540F2FF52BE52C30E623EC
:100A630030E505752D018003E4F52D852C29E52955
:100A7300541FC4540F75F00AA4FFE529540F2FF532
:100A83002C8017852C29E529C4540F75F00AA4FF7F
:100A9300E529540F2FF52C752D027B007A00792A56
:010AA3002230
:100B1A00E53175F00A84C454F0FEE53175F00A84B3
:100B2A00E5F04EF52AEF75F00A84C454F0FEEF752D
:100B3A00F00A84E5F04EF52BED75F00A84C454F002
:100B4A00FFED75F00A84E5F04FF52CEB75F00A8499
:100B5A00C454F0FFEB75F00A84E5F04FF52D7B00E5
:0C0B6A007A00792A7526047F03020C7AB9
:100C26007B007A00792A7522007523047F03120A55
:100C3600A4852B29E529C4540F75F00AA4FFE529DC
:100C4600540F2FF52B852C29E529C4540F75F00A6E
:100C5600A4FFE529540F2FF52C852D29E529C45429
:100C66000F75F00AA4FFE529540F2FF52D7B007AA6
:040C760000792A22B5
:0C0E70000A14C0F9A4B0999282F880988E
:030BCE00FF7C00A9
:100BD1008DB0EFB40A00504C900BE0F82828730256
:100BE1000BFE020C02020C06020C0A020C0E020C95
:100BF10012020C16020C1A020C1E020C2285149011
:100C010022851590228516902285179022851890AD
:100C11002285199022851A9022851B9022851C908D
:050C210022851D902258
:100D4500E4F536F53775B03FF536F53774142537C4
:100D5500F8E6F5907F507EC3120E5E0537E53770D5
:0E0D6500020536C3940AE5366480948040DEB1
:010D7300225D
:1008CF008B1E8A1F892090000212081975F00A8466
:1008DF00750800F5097D01120BCE7F647E00120EA4
:1008EF005EAB1EAA1FA92090000212081975F00A0C
:1008FF0084AFF0750A008F0B7D027C00120BD17F45
:10090F00647E00120E5EAB1EAA1FA920900001127A
:10091F00081975F00A84750C00F50D7D04120BCEC5
:10092F007F647E00120E5EAB1EAA1FA920900001ED
:10093F0012081975F00A84AFF0750E008F0F7D083D
:10094F007C00120BD17F647E00120E5EAB1EAA1FBD
:10095F00A92012080075F00A84751000F511FF7DAB
:10096F00107C00120BD17F647E00120E5EAB1EAAAC
:10097F001FA92012080075F00A84AFF07512008FBE
:08098F00137D207C00020BD156
:100DE700120E7D7521327B207D08E4FF120B7612EF
:070DF7000A231208CF80F867
:030000000209975B
:0C099700787FE4F6D8FD7581370209DE98
:10080000BB010689828A83E0225002E722BBFE02F6
:09081000E32289828A83E4932229
:10081900BB010CE58229F582E5833AF583E0225094
:1008290006E92582F8E622BBFE06E92582F8E222DE
:0D083900E58229F582E5833AF583E49322F8
:10084600BB010689828A83F0225002F722BBFE0191
:02085600F3228B
:10085800F8BB010DE58229F582E5833AF583E8F0D6
:10086800225006E92582C8F622BBFE05E92582C882
:02087800F2226A
:10087A00BC000BBE0029EF8DF084FFADF022E4CC62
:10088A00F875F008EF2FFFEE33FEEC33FCEE9DEC2B
:10089A00984005FCEE9DFE0FD5F0E9E4CEFD22ED71
:1008AA00F8F5F0EE8420D21CFEADF075F008EF2FBB
:1008BA00FFED33FD4007985006D5F0F222C398FDAC
:0508CA000FD5F0EA2249
:1009A300020DE7E493A3F8E493A34003F68001F276
:1009B30008DFF48029E493A3F85407240CC8C33355
:1009C300C4540F4420C8834004F456800146F6DF24
:1009D300E4800B0102040810204080900E70E47E36
:1009E300019360BCA3FF543F30E509541FFEE49319
:1009F300A360010ECF54C025E060A840B8E493A3E0
:100A0300FAE493A3F8E493A3C8C582C8CAC583CA0A
:100A1300F0A3C8C582C8CAC583CADFE9DEE780BEC2
:010E7C000075
:00000001FF
